S01C000050726F796563746F20416E696D6174726F6E69632E737265631E
S11300000C9434000C9451000C9451000C94510045
S11300100C94FF050C9432060C9451000C9451007E
S11300200C9451000C9451000C9451000C94510008
S11300300C9451000C9451000C9451000C945100F8
S11300400C9451000C9451000C94DB050C94510059
S11300500C9451000C9451000C9451000C945100D8
S11300600C9451000C94510011241FBECFEFD8E022
S1130070DEBFCDBF11E0A0E0B1E0E2E0F1E102C0FB
S113008005900D92A638B107D9F721E0A6E8B1E0B2
S113009001C01D92A339B207E1F70E941F050C9419
S11300A07F080C940000811106C0ECE7F0E0808129
S11300B08F73808310C0813049F4ECE7F0E08081D5
S11300C08064808380818F77808305C0ECE7F0E0D3
S11300D08081806C8083613031F4ECE7F0E08081D2
S11300E0806280830895ECE7F0E080818F7D8083D7
S11300F0089510927A00813031F4EAE7F0E08081CB
S11301008068808305C0EAE7F0E080818F77808390
S1130110613031F4EAE7F0E080818062808305C0D9
S1130120EAE7F0E080818F7D8083413031F4EAE7B3
S1130130F0E080818860808305C0EAE7F0E0808198
S1130140877F8083203141F140F4243099F02830B6
S1130150D1F0223009F041C007C0203479F12038B1
S1130160B1F12032D1F521C0EAE7F0E08081887F47
S113017080830895EAE7F0E0808182608083808153
S11301808A7F80830895EAE7F0E08081836080833A
S113019080818B7F80830895EAE7F0E0808184602A
S11301A0808380818C7F80830895EAE7F0E08081FA
S11301B08560808380818D7F80830895EAE7F0E005
S11301C080818660808380818E7F80830895EAE7C2
S11301D0F0E08081876080830895EAE7F0E0808121
S11301E0887F80830895ECE7F0E09081907F90838E
S11301F09081892B8083EAE7F0E0808180648083AA
S113020080917A0086FDFCCF8091790090E008957A
S11302108AB180698AB98BB18F778BB98BB18F7EA4
S11302208BB9EEE7F0E08081806280838081806119
S113023080838AB18B7F8AB98BB184608BB987B193
S1130240807F87B988B18F6088B9089587E00E945C
S1130250F30090938E0180938D018FE39CE90197C5
S1130260F1F700C0000020918D0130918E01ABEABE
S1130270BAEA0E94480896958795969587950E94B4
S11302800E0786E00E94F30090938A01809389010F
S11302908FE39CE90197F1F700C0000020918901E8
S11302A030918A01ABEABAEA0E944808969587958C
S11302B0969587950E94AA0685E00E94F300909384
S11302C09201809391018FE39CE90197F1F700C0BB
S11302D000002091910130919201ABEABAEA0E94A8
S11302E0480896958795969587950E94420884E0DC
S11302F00E94F30090938C0180938B018FE39CE91F
S11303000197F1F700C0000020918B0130918C011E
S1130310ABEABAEA0E944808969587959695879520
S11303200E94A5079FE728E381E091502040804088
S1130330E1F700C000000895E8E6F0E08081826003
S11303408083808184608083ECE6F0E080818F602C
S11303508083EDE6F0E08081846080830895CF930C
S1130360DF93CDB7DEB728970FB6F894DEBF0FBE84
S1130370CDBF0E94260187E00E94F30090938E0176
S113038080938D0186E00E94F30090938A0180930C
S1130390890185E00E94F30090939201809391017A
S11303A084E00E94F30090938C0180938B01209150
S11303B08D0130918E013A832983209189013091F6
S11303C08A013C832B8320919101309192013E83D9
S11303D02D8398878F83609106017091070148E00F
S11303E050E0CE0101960E94670828960FB6F89453
S11303F0DEBF0FBECDBFDF91CF910895CF93DF93C2
S1130400CDB7DEB728970FB6F894DEBF0FBECDBFC9
S1130410609106017091070148E050E0CE01019619
S11304200E94570829813A8130938E0120938D01CF
S11304308B819C8190938A01809389018D819E8117
S113044090939201809391018F81988590938C0170
S113045080938B01ABEABAEA0E9448089695879587
S1130460969587950E940E078FE39CE90197F1F713
S113047000C000002091890130918A01ABEABAEAF8
S11304800E94480896958795969587950E94AA0696
S11304908FE39CE90197F1F700C0000020919101DE
S11304A030919201ABEABAEA0E9448089695879582
S11304B0969587950E9442088FE39CE90197F1F78E
S11304C000C0000020918B0130918C01ABEABAEAA4
S11304D00E94480896958795969587950E94A5074A
S11304E08FE39CE90197F1F700C0000028960FB64E
S11304F0F894DEBF0FBECDBFDF91CF910895CF93A7
S1130500DF93CDB7DEB728970FB6F894DEBF0FBEE2
S1130510CDBF0E94260187E00E94F30090938E01D4
S113052080938D0186E00E94F30090938A0180936A
S1130530890185E00E94F3009093920180939101D8
S113054084E00E94F30090938C0180938B012091AE
S11305508D0130918E013A83298320918901309154
S11305608A013C832B8320919101309192013E8337
S11305702D8398878F83609104017091050148E071
S113058050E0CE0101960E94670828960FB6F894B1
S1130590DEBF0FBECDBFDF91CF910895CF93DF9320
S11305A0CDB7DEB728970FB6F894DEBF0FBECDBF28
S11305B0609104017091050148E050E0CE0101967C
S11305C00E94570829813A8130938E0120938D012E
S11305D08B819C8190938A01809389018D819E8176
S11305E090939201809391018F81988590938C01CF
S11305F080938B01ABEABAEA0E94480896958795E6
S1130600969587950E940E078FE39CE90197F1F771
S113061000C000002091890130918A01ABEABAEA56
S11306200E94480896958795969587950E94AA06F4
S11306308FE39CE90197F1F700C00000209191013C
S113064030919201ABEABAEA0E94480896958795E0
S1130650969587950E9442088FE39CE90197F1F7EC
S113066000C0000020918B0130918C01ABEABAEA02
S11306700E94480896958795969587950E94A507A8
S11306808FE39CE90197F1F700C0000028960FB6AC
S1130690F894DEBF0FBECDBFDF91CF910895CF9305
S11306A0DF93CDB7DEB728970FB6F894DEBF0FBE41
S11306B0CDBF0E94260187E00E94F30090938E0133
S11306C080938D0186E00E94F30090938A018093C9
S11306D0890185E00E94F300909392018093910137
S11306E084E00E94F30090938C0180938B0120910D
S11306F08D0130918E013A832983209189013091B3
S11307008A013C832B8320919101309192013E8395
S11307102D8398878F83609102017091030148E0D3
S113072050E0CE0101960E94670828960FB6F8940F
S1130730DEBF0FBECDBFDF91CF910895CF93DF937E
S1130740CDB7DEB728970FB6F894DEBF0FBECDBF86
S1130750609102017091030148E050E0CE010196DE
S11307600E94570829813A8130938E0120938D018C
S11307708B819C8190938A01809389018D819E81D4
S113078090939201809391018F81988590938C012D
S113079080938B01ABEABAEA0E9448089695879544
S11307A0969587950E940E078FE39CE90197F1F7D0
S11307B000C000002091890130918A01ABEABAEAB5
S11307C00E94480896958795969587950E94AA0653
S11307D08FE39CE90197F1F700C00000209191019B
S11307E030919201ABEABAEA0E944808969587953F
S11307F0969587950E9442088FE39CE90197F1F74B
S113080000C0000020918B0130918C01ABEABAEA60
S11308100E94480896958795969587950E94A50706
S11308208FE39CE90197F1F700C0000028960FB60A
S1130830F894DEBF0FBECDBFDF91CF910895CF9363
S1130840DF93CDB7DEB728970FB6F894DEBF0FBE9F
S1130850CDBF0E94260187E00E94F30090938E0191
S113086080938D0186E00E94F30090938A01809327
S1130870890185E00E94F300909392018093910195
S113088084E00E94F30090938C0180938B0120916B
S11308908D0130918E013A83298320918901309111
S11308A08A013C832B8320919101309192013E83F4
S11308B02D8398878F83609100017091010148E036
S11308C050E0CE0101960E94670828960FB6F8946E
S11308D0DEBF0FBECDBFDF91CF910895CF93DF93DD
S11308E0CDB7DEB728970FB6F894DEBF0FBECDBFE5
S11308F0609100017091010148E050E0CE01019641
S11309000E94570829813A8130938E0120938D01EA
S11309108B819C8190938A01809389018F81988532
S1130920909392018093910189859A8590938C018B
S113093080938B01ABEABAEA0E94480896958795A2
S1130940969587950E940E078FE39CE90197F1F72E
S113095000C000002091890130918A01ABEABAEA13
S11309600E94480896958795969587950E94AA06B1
S11309708FE39CE90197F1F700C0000020919101F9
S113098030919201ABEABAEA0E944808969587959D
S1130990969587950E9442088FE39CE90197F1F7A9
S11309A000C0000020918B0130918C01ABEABAEABF
S11309B00E94480896958795969587950E94A50765
S11309C08FE39CE90197F1F700C0000028960FB669
S11309D0F894DEBF0FBECDBFDF91CF9108958AB1E9
S11309E08E7F8AB98AB182608AB9E0ECF0E0108225
S11309F0808182608083E1ECF0E0108280818869EC
S1130A008083E2ECF0E010828081866080838FEC4A
S1130A1090E09093C5008093C4000895AC0120E059
S1130A2007C09091C00095FFFCCF3093C6002F5FA4
S1130A30FA01E20FF11D30813111F3CF089587E0FF
S1130A400E94F30086E00E94F30085E00E94F30018
S1130A5084E00E94F3000E949C010E9408010E940D
S1130A60EF0440E054E061E080E00E94AC0640E026
S1130A7054E061E080E00E94480640E054E060E019
S1130A8080E00E94AB0740E054E060E080E00E9418
S1130A90100761E081E00E94530020E840E060E03C
S1130AA081E00E947900789488E091E00E940E052C
S1130AB080918601813079F580918701813049F4F4
S1130AC00E94AF018BB18F778BB98BB18F7E8BB9BD
S1130AD0EFCF823049F40E947F028BB180618BB9E1
S1130AE08BB18F778BB9E4CF833049F40E944F03E5
S1130AF08BB180688BB98BB18F7E8BB9D9CF84E0F1
S1130B00809387010E941F048BB180688BB98BB1DD
S1130B1080618BB9CDCF8230E9F48BB180618BB920
S1130B208BB18F778BB980918701813019F40E9442
S1130B30FE01BECF823019F40E94CE02B9CF8330B9
S1130B4019F40E949E03B4CF84E0809387010E942D
S1130B506E04AECF833019F58BB180688BB98BB13D
S1130B6080618BB98091C600813319F40E94FE0123
S1130B709FCF8091C600823319F40E94CE0298CF91
S1130B808091C600833319F40E949E0391CF809113
S1130B90C600843309F08CCF0E946E0489CF843060
S1130BA009F086CF109286018BB18F778BB98BB108
S1130BB08F7E8BB97DCF1F920F920FB60F921124A7
S1130BC08F93EF93FF93E6ECF0E0808180938F01A5
S1130BD08081809390018091C00085FFFCCF80913B
S1130BE08F01E6ECF0E08083809190018083FF9197
S1130BF0EF918F910F900FBE0F901F9018951F9239
S1130C000F920FB60F9211242F933F938F939F93BC
S1130C1036B186B1827096B1947026B1287030FDD9
S1130C2004C081E08093870111C0811104C082E077
S1130C30809387010BC0911104C083E080938701E6
S1130C4005C0211103C084E0809387018BB38260C7
S1130C508BBB9F918F913F912F910F900FBE0F905F
S1130C601F9018951F920F920FB60F9211248F9315
S1130C704A9905C0809186018F5F809386018BB36A
S1130C8084608BBB8F910F900FBE0F901F901895AF
S1130C909AB190629AB915BC813021F484B580630D
S1130CA084BD03C084B5806284BD611107C084B56E
S1130CB0816084BD84B58D7F84BD21C0613021F401
S1130CC084B5836084BD1BC0623051F484B58160F7
S1130CD084BD84B58D7F84BD85B5886085BD0FC016
S1130CE0633039F484B58E7F84BD84B58D7F84BD33
S1130CF006C084B5836084BD85B5886085BD4034F5
S1130D005105C1F038F44115510561F048305105E1
S1130D1069F01CC0411581E0580781F04115544029
S1130D2089F014C085B5816085BD089585B582605C
S1130D3085BD089585B5836085BD089585B58460B6
S1130D4085BD089585B5856085BD089585B58160A7
S1130D5085BD089588BD08959AB190649AB914BC6C
S1130D60813021F484B5806C84BD03C084B580686F
S1130D7084BD611107C084B5816084BD84B58D7F55
S1130D8084BD21C0613021F484B5836084BD1BC05F
S1130D90623051F484B5816084BD84B58D7F84BD97
S1130DA085B5886085BD0FC0633039F484B58E7F06
S1130DB084BD84B58D7F84BD06C084B5836084BD45
S1130DC085B5886085BD40345105C1F038F44115BE
S1130DD0510561F04830510569F01CC0411581E0AE
S1130DE0580781F04115544089F014C085B58160DD
S1130DF085BD089585B5826085BD089585B58360F8
S1130E0085BD089585B5846085BD089585B58560E3
S1130E1085BD089585B5816085BD089587BD089514
S1130E2094B1946094B9813031F4E0E8F0E08081C9
S1130E308063808305C0E0E8F0E080818062808385
S1130E40623009F128F4662341F0613089F03CC036
S1130E50633021F1643069F137C0E0E8F0E080816B
S1130E6081608083E1E8F0E080818860808336C01F
S1130E70E0E8F0E0808182608083E1E8F0E0808156
S1130E80886080832BC0E0E8F0E080818360808309
S1130E90E1E8F0E080818860808320C0E0E8F0E051
S1130EA0808181608083E1E8F0E0808188618083D3
S1130EB015C0E0E8F0E0808183608083E1E8F0E041
S1130EC08081886180830AC0E0E8F0E080818160ED
S1130ED08083E1E8F0E080818860808340345105BC
S1130EE0E1F038F44115510561F04830510579F0CD
S1130EF026C0411581E05807B1F041155440C9F0AE
S1130F001EC0E1E8F0E08081816080830895E1E81B
S1130F10F0E08081826080830895E1E8F0E08081E0
S1130F20836080830895E1E8F0E0808184608083B9
S1130F300895E1E8F0E08081856080830895E1E828
S1130F40F0E0808181608083089590E090938B002D
S1130F5080938A00089594B1926094B910928100AC
S1130F60813031F4E0E8F0E08081806C808305C05A
S1130F70E0E8F0E0808180688083623009F128F441
S1130F80662341F0613089F03CC0633021F1643064
S1130F9069F137C0E0E8F0E0808181608083E1E8B6
S1130FA0F0E080818860808336C0E0E8F0E08081F2
S1130FB082608083E1E8F0E08081886080832BC0D8
S1130FC0E0E8F0E0808183608083E1E8F0E0808104
S1130FD08860808320C0E0E8F0E0808181608083C5
S1130FE0E1E8F0E080818861808315C0E0E8F0E00A
S1130FF0808183608083E1E8F0E080818861808380
S11310000AC0E0E8F0E0808181608083E1E8F0E0FC
S113101080818860808340345105E1F038F44115C3
S1131020510561F04830510579F026C0411581E041
S11310305807B1F041155440C9F01EC0E1E8F0E092
S11310408081816080830895E1E8F0E0808182609E
S113105080830895E1E8F0E08081836080830895CF
S1131060E1E8F0E08081846080830895E1E8F0E0C5
S11310708081856080830895E1E8F0E0808181606B
S11310808083089590E09093890080938800089568
S1131090A29FB001B39FC001A39F700D811D1124B5
S11310A0911DB29F700D811D1124911D0895DC01C5
S11310B0CB01FC01F999FECF06C0F2BDE1BDF89A5F
S11310C0319600B40D9241505040B8F70895DC01B8
S11310D0CB0103C02D910E94720841505040D0F7BB
S11310E00895262FF999FECF1FBA92BD81BD20BD68
S11310F00FB6F894FA9AF99A0FBE01960895F894E7
S1051100FFCF1B
S11311020F00600040002000456C696A612073751D
S113111220706F636963696F6E20284E6F20657358
S113112220636F6E20656C20706164206E756D653E
S11311327269636F203D4429200A506F63696369B1
S11311426F6E20556E6F20283129200A506F636913
S113115263696F6E20446F7320283229200A506F0E
S1131162636963696F6E2054726573202833292082
S11311720A506F636963696F6E2043756174726F9D
S1091182202834290000BE
S9030000FC
